{
  "_format": "hh-sol-artifact-1",
  "contractName": "NameStorage",
  "sourceName": "contracts/NameStorage.sol",
  "abi": [
    {
      "anonymous": false,
      "inputs": [
        {
          "indexed": true,
          "internalType": "address",
          "name": "user",
          "type": "address"
        },
        {
          "indexed": false,
          "internalType": "string",
          "name": "name",
          "type": "string"
        }
      ],
      "name": "NameStored",
      "type": "event"
    },
    {
      "inputs": [],
      "name": "getAllUsers",
      "outputs": [
        {
          "internalType": "address[]",
          "name": "",
          "type": "address[]"
        }
      ],
      "stateMutability": "view",
      "type": "function"
    },
    {
      "inputs": [],
      "name": "getMyName",
      "outputs": [
        {
          "internalType": "string",
          "name": "",
          "type": "string"
        }
      ],
      "stateMutability": "view",
      "type": "function"
    },
    {
      "inputs": [
        {
          "internalType": "address",
          "name": "_user",
          "type": "address"
        }
      ],
      "name": "getName",
      "outputs": [
        {
          "internalType": "string",
          "name": "",
          "type": "string"
        }
      ],
      "stateMutability": "view",
      "type": "function"
    },
    {
      "inputs": [],
      "name": "getUserCount",
      "outputs": [
        {
          "internalType": "uint256",
          "name": "",
          "type": "uint256"
        }
      ],
      "stateMutability": "view",
      "type": "function"
    },
    {
      "inputs": [
        {
          "internalType": "string",
          "name": "_name",
          "type": "string"
        }
      ],
      "name": "storeName",
      "outputs": [],
      "stateMutability": "nonpayable",
      "type": "function"
    }
  ],
  "bytecode": "0x608060405234801561001057600080fd5b50610a44806100206000396000f3fe608060405234801561001057600080fd5b50600436106100575760003560e01c8063063cfccb1461005c5780635fd4b08a1461007857806375a54bc2146100a8578063b5cb15f7146100c6578063e2842d79146100e4575b600080fd5b61007660048036038101906100719190610623565b610102565b005b610092600480360381019061008d91906105fa565b6102a1565b60405161009f9190610776565b60405180910390f35b6100b0610371565b6040516100bd9190610776565b60405180910390f35b6100ce61043f565b6040516100db91906107b8565b60405180910390f35b6100ec61044c565b6040516100f99190610754565b60405180910390f35b6000815111610146576040517f08c379a000000000000000000000000000000000000000000000000000000000815260040161013d90610798565b60405180910390fd5b60008060003373ffffffffffffffffffffffffffffffffffffffff1673ffffffffffffffffffffffffffffffffffffffff1681526020019081526020016000208054610191906108fc565b905014156101fd576001339080600181540180825580915050600190039060005260206000200160009091909190916101000a81548173ffffffffffffffffffffffffffffffffffffffff021916908373ffffffffffffffffffffffffffffffffffffffff1602179055505b806000803373ffffffffffffffffffffffffffffffffffffffff1673ffffffffffffffffffffffffffffffffffffffff168152602001908152602001600020908051906020019061024f9291906104da565b503373ffffffffffffffffffffffffffffffffffffffff167f5bc3817a8f34e159a358513fc07a7b1ef868bf50fecbb50cb0629c3dc77c9e7d826040516102969190610776565b60405180910390a250565b60606000808373ffffffffffffffffffffffffffffffffffffffff1673ffffffffffffffffffffffffffffffffffffffff16815260200190815260200160002080546102ec906108fc565b80601f0160208091040260200160405190810160405280929190818152602001828054610318906108fc565b80156103655780601f1061033a57610100808354040283529160200191610365565b820191906000526020600020905b81548152906001019060200180831161034857829003601f168201915b50505050509050919050565b60606000803373ffffffffffffffffffffffffffffffffffffffff1673ffffffffffffffffffffffffffffffffffffffff16815260200190815260200160002080546103bc906108fc565b80601f01602080910402602001604051908101604052809291908181526020018280546103e8906108fc565b80156104355780601f1061040a57610100808354040283529160200191610435565b820191906000526020600020905b81548152906001019060200180831161041857829003601f168201915b5050505050905090565b6000600180549050905090565b606060018054806020026020016040519081016040528092919081815260200182805480156104d057602002820191906000526020600020905b8160009054906101000a900473ffffffffffffffffffffffffffffffffffffffff1673ffffffffffffffffffffffffffffffffffffffff1681526020019060010190808311610486575b5050505050905090565b8280546104e6906108fc565b90600052602060002090601f016020900481019282610508576000855561054f565b82601f1061052157805160ff191683800117855561054f565b8280016001018555821561054f579182015b8281111561054e578251825591602001919060010190610533565b5b50905061055c9190610560565b5090565b5b80821115610579576000816000905550600101610561565b5090565b600061059061058b846107f8565b6107d3565b9050828152602081018484840111156105a857600080fd5b6105b38482856108ba565b509392505050565b6000813590506105ca816109f7565b92915050565b600082601f8301126105e157600080fd5b81356105f184826020860161057d565b91505092915050565b60006020828403121561060c57600080fd5b600061061a848285016105bb565b91505092915050565b60006020828403121561063557600080fd5b600082013567ffffffffffffffff81111561064f57600080fd5b61065b848285016105d0565b91505092915050565b6000610670838361067c565b60208301905092915050565b6106858161087e565b82525050565b600061069682610839565b6106a0818561085c565b93506106ab83610829565b8060005b838110156106dc5781516106c38882610664565b97506106ce8361084f565b9250506001810190506106af565b5085935050505092915050565b60006106f482610844565b6106fe818561086d565b935061070e8185602086016108c9565b610717816109bd565b840191505092915050565b600061072f60148361086d565b915061073a826109ce565b602082019050919050565b61074e816108b0565b82525050565b6000602082019050818103600083015261076e818461068b565b905092915050565b6000602082019050818103600083015261079081846106e9565b905092915050565b600060208201905081810360008301526107b181610722565b9050919050565b60006020820190506107cd6000830184610745565b92915050565b60006107dd6107ee565b90506107e9828261092e565b919050565b6000604051905090565b600067ffffffffffffffff8211156108135761081261098e565b5b61081c826109bd565b9050602081019050919050565b6000819050602082019050919050565b600081519050919050565b600081519050919050565b6000602082019050919050565b600082825260208201905092915050565b600082825260208201905092915050565b600061088982610890565b9050919050565b600073ffffffffffffffffffffffffffffffffffffffff82169050919050565b6000819050919050565b82818337600083830152505050565b60005b838110156108e75780820151818401526020810190506108cc565b838111156108f6576000848401525b50505050565b6000600282049050600182168061091457607f821691505b602082108114156109285761092761095f565b5b50919050565b610937826109bd565b810181811067ffffffffffffffff821117156109565761095561098e565b5b80604052505050565b7f4e487b7100000000000000000000000000000000000000000000000000000000600052602260045260246000fd5b7f4e487b7100000000000000000000000000000000000000000000000000000000600052604160045260246000fd5b6000601f19601f8301169050919050565b7f4e616d652063616e6e6f7420626520656d707479000000000000000000000000600082015250565b610a008161087e565b8114610a0b57600080fd5b5056fea264697066735822122056ff0230f99e34ea2ca580312c3f037a1281a0b9a9df91c1b2eaaef7eda318af64736f6c63430008040033",
  "linkReferences": {},
  "deployedLinkReferences": {}
}